{
  "contractName": "TemperingProof",
  "abi": [
    {
      "constant": true,
      "inputs": [
        {
          "name": "",
          "type": "uint256"
        }
      ],
      "name": "txHistory",
      "outputs": [
        {
          "name": "recordHash",
          "type": "bytes32"
        },
        {
          "name": "changeBy",
          "type": "address"
        },
        {
          "name": "txid",
          "type": "uint256"
        }
      ],
      "payable": false,
      "stateMutability": "view",
      "type": "function"
    },
    {
      "constant": true,
      "inputs": [
        {
          "name": "",
          "type": "bytes32"
        }
      ],
      "name": "recordHashMap",
      "outputs": [
        {
          "name": "",
          "type": "address"
        }
      ],
      "payable": false,
      "stateMutability": "view",
      "type": "function"
    },
    {
      "inputs": [],
      "payable": false,
      "stateMutability": "nonpayable",
      "type": "constructor"
    },
    {
      "anonymous": false,
      "inputs": [
        {
          "indexed": false,
          "name": "transactionId",
          "type": "uint256"
        },
        {
          "indexed": false,
          "name": "blocknum",
          "type": "uint256"
        },
        {
          "indexed": true,
          "name": "recordHash",
          "type": "bytes32"
        },
        {
          "indexed": true,
          "name": "from",
          "type": "address"
        }
      ],
      "name": "DBRecordEvent",
      "type": "event"
    },
    {
      "constant": false,
      "inputs": [
        {
          "name": "_recordHash",
          "type": "bytes32"
        }
      ],
      "name": "newRecord",
      "outputs": [
        {
          "name": "success",
          "type": "bool"
        }
      ],
      "payable": false,
      "stateMutability": "nonpayable",
      "type": "function"
    },
    {
      "constant": true,
      "inputs": [
        {
          "name": "_recordHash",
          "type": "bytes32"
        }
      ],
      "name": "recordExists",
      "outputs": [
        {
          "name": "exists",
          "type": "bool"
        }
      ],
      "payable": false,
      "stateMutability": "view",
      "type": "function"
    },
    {
      "constant": true,
      "inputs": [
        {
          "name": "_txid",
          "type": "uint256"
        }
      ],
      "name": "getRecordDetails",
      "outputs": [
        {
          "name": "_recordHash",
          "type": "bytes32"
        },
        {
          "name": "from",
          "type": "address"
        },
        {
          "name": "transactionId",
          "type": "uint256"
        }
      ],
      "payable": false,
      "stateMutability": "view",
      "type": "function"
    },
    {
      "constant": true,
      "inputs": [
        {
          "name": "recordHash",
          "type": "bytes32"
        },
        {
          "name": "_changeby",
          "type": "address"
        }
      ],
      "name": "nonRepudationVerify",
      "outputs": [
        {
          "name": "changeOwner",
          "type": "bool"
        }
      ],
      "payable": false,
      "stateMutability": "view",
      "type": "function"
    },
    {
      "constant": true,
      "inputs": [],
      "name": "getLatestTransactionNum",
      "outputs": [
        {
          "name": "latest",
          "type": "uint256"
        }
      ],
      "payable": false,
      "stateMutability": "view",
      "type": "function"
    }
  ],
  "bytecode": "0x6060604052341561000f57600080fd5b33600160006101000a81548173ffffffffffffffffffffffffffffffffffffffff021916908373ffffffffffffffffffffffffffffffffffffffff1602179055506107a58061005f6000396000f300606060405260043610610083576000357c0100000000000000000000000000000000000000000000000000000000900463ffffffff16806316cffa971461008857806375fcbd86146100e657806380b3fcfd1461015f578063b0639268146101c6578063b3baedd0146101ef578063d8c086731461022e578063f79fe538146102a7575b600080fd5b341561009357600080fd5b6100cc60048080356000191690602001909190803573ffffffffffffffffffffffffffffffffffffffff169060200190919050506102e6565b604051808215151515815260200191505060405180910390f35b34156100f157600080fd5b61010760048080359060200190919050506103e4565b6040518084600019166000191681526020018373ffffffffffffffffffffffffffffffffffffffff1673ffffffffffffffffffffffffffffffffffffffff168152602001828152602001935050505060405180910390f35b341561016a57600080fd5b61018460048080356000191690602001909190505061042e565b604051808273ffffffffffffffffffffffffffffffffffffffff1673ffffffffffffffffffffffffffffffffffffffff16815260200191505060405180910390f35b34156101d157600080fd5b6101d9610461565b6040518082815260200191505060405180910390f35b34156101fa57600080fd5b61021460048080356000191690602001909190505061046a565b604051808215151515815260200191505060405180910390f35b341561023957600080fd5b61024f600480803590602001909190505061064a565b6040518084600019166000191681526020018373ffffffffffffffffffffffffffffffffffffffff1673ffffffffffffffffffffffffffffffffffffffff168152602001828152602001935050505060405180910390f35b34156102b257600080fd5b6102cc6004808035600019169060200190919050506106f1565b604051808215151515815260200191505060405180910390f35b60008073ffffffffffffffffffffffffffffffffffffffff1660036000856000191660001916815260200190815260200160002060009054906101000a900473ffffffffffffffffffffffffffffffffffffffff1673ffffffffffffffffffffffffffffffffffffffff161415151561035e57600080fd5b8173ffffffffffffffffffffffffffffffffffffffff1660036000856000191660001916815260200190815260200160002060009054906101000a900473ffffffffffffffffffffffffffffffffffffffff1673ffffffffffffffffffffffffffffffffffffffff1614156103d657600190506103db565b600090505b80905092915050565b60026020528060005260406000206000915090508060000154908060010160009054906101000a900473ffffffffffffffffffffffffffffffffffffffff16908060020154905083565b60036020528060005260406000206000915054906101000a900473ffffffffffffffffffffffffffffffffffffffff1681565b60008054905090565b60008060036000846000191660001916815260200190815260200160002060009054906101000a900473ffffffffffffffffffffffffffffffffffffffff1673ffffffffffffffffffffffffffffffffffffffff161415156104cb57600080fd5b600080815460010191905081905550606060405190810160405280836000191681526020013373ffffffffffffffffffffffffffffffffffffffff16815260200160005481525060026000805481526020019081526020016000206000820151816000019060001916905560208201518160010160006101000a81548173ffffffffffffffffffffffffffffffffffffffff021916908373ffffffffffffffffffffffffffffffffffffffff160217905550604082015181600201559050503360036000846000191660001916815260200190815260200160002060006101000a81548173ffffffffffffffffffffffffffffffffffffffff021916908373ffffffffffffffffffffffffffffffffffffffff1602179055503373ffffffffffffffffffffffffffffffffffffffff1682600019167fe7be87d7f9378ad38a48da19b37870656402d993149f1e73c4148fbb36a3032f60005443604051808381526020018281526020019250505060405180910390a360019050919050565b600080600080600102600019166002600086815260200190815260200160002060000154600019161415151561067f57600080fd5b600260008581526020019081526020016000206000015492506002600085815260200190815260200160002060010160009054906101000a900473ffffffffffffffffffffffffffffffffffffffff169150600260008581526020019081526020016000206002015490509193909250565b60008073ffffffffffffffffffffffffffffffffffffffff1660036000846000191660001916815260200190815260200160002060009054906101000a900473ffffffffffffffffffffffffffffffffffffffff1673ffffffffffffffffffffffffffffffffffffffff1614151561076c5760019050610771565b600090505b8090509190505600a165627a7a723058208dd894c136871a77f0c0ebbfd439a2c966aa7ff8a923b5c5fb356296056268250029",
  "source": "pragma solidity ^0.4.17;\r\n\r\n/* A smart contract  available for integration with any database or any transactions performing web application using web3.js lib,\r\nfor detection of record tempering and non repudiation */\r\n\r\ncontract TemperingProof {\r\n\r\n    struct DBRecord{\r\n        bytes32 recordHash; //record hash\r\n        address changeBy; \r\n        uint txid; //transaction id\r\n    }\r\n    \r\n    uint latest_txid;\r\n    address _owner;\r\n\r\n    event DBRecordEvent(uint transactionId, uint blocknum, bytes32 indexed recordHash, address indexed from);\r\n\r\n    mapping(uint => DBRecord) public txHistory;\r\n    mapping(bytes32 => address) public recordHashMap;\r\n    \r\n    function TemperingProof()\r\n        public{\r\n        _owner = msg.sender; \r\n    }\r\n    \r\n    function newRecord(bytes32 _recordHash) \r\n        public\r\n        returns (bool success){\r\n            \r\n        require(recordHashMap[_recordHash] == 0x0);\r\n        ++latest_txid;\r\n            \r\n        txHistory[latest_txid]=DBRecord(_recordHash,msg.sender,latest_txid);\r\n        recordHashMap[_recordHash]=msg.sender;\r\n\r\n        DBRecordEvent(latest_txid, block.number, _recordHash, msg.sender);\r\n        return true;\r\n    }\r\n\r\n    function recordExists(bytes32 _recordHash) \r\n        public\r\n        view \r\n        returns (bool exists){\r\n        if (recordHashMap[_recordHash] != address(0x0)) {\r\n            exists = true;\r\n        }else{\r\n            exists= false;\r\n        }\r\n        return exists;\r\n    }\r\n    \r\n    function getRecordDetails(uint _txid) \r\n        constant \r\n        public\r\n        returns (bytes32 _recordHash, address from, uint transactionId){\r\n        \r\n        require(txHistory[_txid].recordHash != bytes32(0x0));\r\n        \r\n        _recordHash = txHistory[_txid].recordHash;\r\n        from = txHistory[_txid].changeBy;\r\n        transactionId = txHistory[_txid].txid;\r\n    }\r\n\r\n    function nonRepudationVerify(bytes32 recordHash, address _changeby) \r\n        constant \r\n        public\r\n        returns (bool changeOwner){\r\n        \r\n        require(recordHashMap[recordHash] != address(0x0));\r\n        if(recordHashMap[recordHash] == _changeby)\r\n            changeOwner = true;\r\n        else\r\n            changeOwner = false;\r\n        \r\n        return changeOwner;\r\n    }\r\n    \r\n    function getLatestTransactionNum() \r\n        view \r\n        public\r\n        returns (uint latest){\r\n        return latest_txid;\r\n    }\r\n    \r\n}",
  "sourcePath": "X:\\eth\\TemperingProof\\contracts\\TemperingProof.sol",
  "compiler": {
    "name": "solc",
    "version": "0.4.19+commit.c4cbbb05.Emscripten.clang"
  },
  "schemaVersion": "1.0.1",
  "updatedAt": "2018-02-22T15:33:43.150Z"
}